:020000040800F2
:10000000683500206502000877120008B510000866
:1000100075120008AF040008051300080000000076
:10002000000000000000000000000000CD010008FA
:10003000BD04000800000000110200088112000841
:100040007F0200087F0200087F0200087F0200088C
:100050007F0200087F020008BF040008C5040008F2
:100060007F0200087F0200087F0200087F0200086C
:100070007F0200087F0200087F0200087F0200085C
:100080007F0200087F0200087F0200087F0200084C
:10009000F9120008B10400087F0200087F0200087E
:1000A0007F0200087F0200087F0200087F0200082C
:1000B0007F0200087F0200087F0200087F0200081C
:1000C0007F0200087F0200087F0200087F0200080C
:1000D0007F0200087F0200087F0200087F020008FC
:1000E0007F0200087F0200087F0200087F020008EC
:1000F0007F0200087F0200087F0200087F020008DC
:100100007F0200087F0200087F0200087F020008CB
:100110007F0200087F0200087F0200087F020008BB
:100120007F0200087F0200087F0200087F020008AB
:1001300000F002F800F03AF80AA090E8000C8244BF
:100140008344AAF10107DA4501D100F02FF8AFF29C
:10015000090EBAE80F0013F0010F18BFFB1A43F0A5
:10016000010318477C2A00009C2A0000103A24BF93
:1001700078C878C1FAD8520724BF30C830C144BF0C
:1001800004680C607047000000230024002500264E
:10019000103A28BF78C1FBD8520728BF30C148BFEA
:1001A0000B6070471FB51FBD10B510BD00F045F9BD
:1001B0001146FFF7F7FF01F0C6F800F063F903B44A
:1001C000FFF7F2FF03BC00F06BF90000224B196847
:1001D0000868B0E8F00F80F30988BFF36F8F4FF025
:1001E000000080F311884EF00D0E704700000000F3
:1001F00006480068006880F3088862B661B6BFF3FD
:100200004F8FBFF36F8F00DF00BF00BF08ED00E02E
:10021000EFF30980BFF36F8F0F4B1A6820E9F00FDF
:10022000106008B54FF0500080F31188BFF34F8F76
:10023000BFF36F8F01F042FF4FF0000080F3118891
:10024000BDE8084019680868B0E8F00F80F3098835
:10025000BFF36F8F704700BF24000020EFF30580CD
:10026000704700000948804709480047FEE7FEE75D
:10027000FEE7FEE7FEE7FEE7FEE7FEE7FEE7FEE756
:1002800004480549054A064B70470000F71200086C
:1002900031010008682F00206835002068310020F7
:1002A00068310020032A40F2308010F0030C00F087
:1002B000158011F8013BBCF1020F624498BF11F8A0
:1002C00001CB00F8013B38BF11F8013BA2F1040259
:1002D00098BF00F801CB38BF00F8013B11F00303D1
:1002E00000F05780083AC0F0088051F8043B083A03
:1002F00051F804CBA0E80810F5E7121D5CBF51F8D7
:10030000043B40F8043BAFF30080D20724BF11F850
:10031000013B11F801CB48BF11F8012B24BF00F8B5
:10032000013B00F801CB48BF00F8012B704702F0F9
:10033000FF0343EA032242EA024200F05EB84FF0B4
:10034000000200B5134694469646203922BFA0E825
:100350000C50A0E80C50B1F12001BFF4F7AF090731
:1003600028BFA0E80C5048BF0CC05DF804EB890022
:1003700028BF40F8042B08BF704748BF20F8022B65
:1003800011F0804F18BF00F8012B7047704770477D
:10039000704710B5203AC0F00B80B1E81850203AF1
:1003A000A0E81850B1E81850A0E81850BFF4F5AF15
:1003B0005FEA027C24BFB1E81850A0E8185044BF9F
:1003C00018C918C0BDE810405FEA827C24BF51F80C
:1003D000043B40F8043B08BF7047D20728BF31F800
:1003E000023B48BF11F8012B28BF20F8023B48BF51
:1003F00000F8012B70474FF000020429C0F0128072
:1004000010F0030C3FF49DAFCCF1040CBCF1020FD3
:1004100018BF00F8012BA8BF20F8022BA1EB0C019C
:10042000FFF78FBF5FEAC17C24BF00F8012B00F803
:10043000012B48BF00F8012B7047754600F02CF8DF
:10044000AE4605006946534620F00700854618B0C1
:1004500020B5FFF715FFBDE820404FF000064FF034
:1004600000074FF000084FF0000B21F00701AC46E9
:10047000ACE8C009ACE8C009ACE8C009ACE8C00908
:100480008D46704710B50446AFF300802046BDE8A6
:100490001040FFF794BE000000487047082F00206E
:1004A00001491820ABBEFEE7260002007047FEE7B8
:1004B000014800F00DB800000C1600207047012024
:1004C00000F0E6B9022000F0E3B972B6FEE770472B
:1004D0002DE9F05F0546006800244669D0F80490D5
:1004E0008768D0F80CB0D0F810A0D0F81880F107C9
:1004F00048D0F90714D001218160B80703D52846F8
:1005000000F0BEF90CE0780702D54FF4006407E074
:10051000380702D54FF4805402E0284600F0AFF9C6
:10052000F80516D529684FF480708860B80503D5A2
:10053000284600F0A7F90CE0780502D544F40054F1
:1005400007E0380502D544F4804402E0284600F074
:1005500098F9F80316D529684FF480308860B803FD
:1005600003D5284600F090F90CE0780302D544F456
:10057000004407E0380302D544F4803402E0284602
:1005800000F081F9300707D55FEACB6004D5296810
:10059000102044F40074C86070074FF0080707D5B6
:1005A0005FEA0B7004D52868C760284600F062F93E
:1005B000B00706D52868C068800702D0284600F03A
:1005C0005AF9700607D55FEACA6004D52968102079
:1005D00044F480640861B00607D55FEA0A7004D568
:1005E00028680761284600F047F9F00606D5286814
:1005F0000069800702D0284600F03FF9B00308D513
:100600005FEAC96005D5296810204860284600F0D7
:1006100035F9F00307D55FEA097004D5286847600B
:10062000284600F032F9300446D55FEA497040D5DB
:10063000F00504D55FEAC87001D044F00104B005AC
:1006400004D55FEA887001D544F00204700504D532
:100650005FEA487001D544F00404300529D518F04C
:10066000700F26D008F07000402815D006DC102846
:1006700009D020280AD0302816D10AE050280ED000
:10068000602811D10EE044F008040DE044F010049D
:100690000AE044F0200407E044F0400404E044F0A1
:1006A000800401E044F480742868816921F07001BD
:1006B0008161296804204860002C05D0686A2043C5
:1006C00068622846FFF703FFBDE8F09F70B504009D
:1006D00003D094F8200010B104E0012070BD204642
:1006E00000F082F82068016841F00101016000F02B
:1006F000DDF90546052604E000F0D8F9401B0A287C
:1007000011D820684068C007F6D02068016821F041
:100710000201016000F0CAF905460BE000F0C6F9DD
:10072000401B0A2806D9606A40F40030606284F8F1
:100730002060D2E7206840688007EFD4207E01283F
:10074000206801683DD021F080010160607E0128B1
:100750002068016838D021F040010160A07E0128A6
:100760002068016833D021F020010160E07E01287B
:10077000206801682ED041F010010160207F01281F
:100780002068016829D021F008010160607F0128FC
:100790002068016824D021F004010160D4E902013D
:1007A0000843D4E90412114308436168491E084311
:1007B0002168C86100206062012084F820000020C8
:1007C00070BD41F08001C0E741F04001C5E741F054
:1007D0002001CAE721F01001CFE741F00801D4E77A
:1007E00041F00401D9E7000010B586B00021009166
:1007F00001910291039100681B49884232D11B4844
:10080000C16941F00071C161C16901F000710491D9
:10081000816941F0040181618069154C00F0040098
:1008200004904FF4006000906946204600F03CF8C8
:10083000A0140090022001900320039069462046F6
:1008400000F032F800220521142000F0A1F9142054
:1008500000F090F900220521152000F099F91520EB
:1008600000F088F906B010BD00640040001002409E
:1008700000080140704770477047704770477047E5
:100880007047704770477047704770477047000067
:10089000044910B50A68024202D00860FFF7F6FF6B
:1008A00010BD0000140401402DE9F84FDFF8C89195
:1008B0000024A9F1040B23460F2709F1040AABF128
:1008C000040ED1E00125A54006EA0502AA4276D130
:1008D000DFF8A8C14E68A6EB0C0866452BD00DDCEE
:1008E000032E34D005DC36B3012E19D0022E2FD1C1
:1008F0001BE0112E16D0122E2AD119E0B8F5881F50
:1009000019D006DCB8F5803F15D0B8F5801F1FD18F
:1009100011E0B8F5001F0ED0B8F5041F18D10AE099
:10092000CB6815E0CB681B1D12E0CB6808330FE0E5
:10093000CB680C330CE08B682BB1012B4FF0080314
:1009400003D0456104E0042302E0056100E00023D8
:10095000FF2A01D8064601E000F104064FEA8405AB
:1009600001D9A5F12005D6F8008007FA05FC28EA90
:100970000C0803FA05F548EA0508C6F800804D683A
:10098000ED0070D53E4DAE6946F00106AE61AD6931
:1009900024F0030605F0010500953A4D06EB050C21
:1009A000DCF80850A607360F07FA06F825EA08050E
:1009B000DFF8D480404503D14FF0000825E052E035
:1009C000DFF8C880404502D14FF001081DE0DFF894
:1009D000C080404502D14FF0020816E0DFF8B48035
:1009E000404502D14FF003080FE0DFF8AC804045EE
:1009F00002D14FF0040808E0DFF8A080404502D1A2
:100A00004FF0050801E04FF0060808FA06F848EA3A
:100A10000508CCF808804D68D9F80060ED024D4615
:100A200001D5164300E096432E604D68DAF8006069
:100A3000AD02554601D5164300E096432E604D6841
:100A4000DBF80060AD035D4601D5164300E0964338
:100A50002E604D68DEF80060ED03754601D5164343
:100A600000E096432E60641C0A681646E2407FF45C
:100A700029AFBDE8F88F0000080401400000111004
:100A8000001002400000014000080140000C01403D
:100A9000001001400014014000180140001C0140FA
:100AA0000AB1016170470904FBE700000148806852
:100AB0007047000014000020024881680278114449
:100AC0008160704714000020074810B5016841F0AC
:100AD00010010160032000F07BF80F2000F006F801
:100AE00000F024F8002010BD0020024070B50D4D2C
:100AF00004464FF47A712878B1FBF0F00A4909688E
:100B0000B1FBF0F000F0C2FA48B9102C07D2002275
:100B10002146501E00F03CF800206C6070BD0120A2
:100B200070BD000014000020200000200F4808B510
:100B3000816941F001018161816901F00101009148
:100B4000C16941F08051C161C069002200F080504C
:100B500000900F21901E00F01BF80548416821F01D
:100B6000E06141F00071416008BD000000100240EA
:100B700000000140002809DB00F01F020121914024
:100B80004009800000F1E020C0F80011704700002B
:100B9000F0B40E4B1B680C46C3F30223C3F10705E8
:100BA000042D00D90425191D072901D2002300E0D6
:100BB000DB1E012606FA05F1491E214099409E40A0
:100BC000761E16403143F0BC00F09DBB0CED00E0FA
:100BD000064900F0070208684FF6FF03184040EA94
:100BE0000220034A10430860704700000CED00E04B
:100BF0000000FA052DE9F0470F46050061D0434E8D
:100C0000306800F00700B84209D2306820F00700D1
:100C100038433060306800F00700B84251D128688E
:100C20003B4C810712D5400703D5606840F4E06073
:100C300060602878000703D5606840F46050606009
:100C40006068A96820F0F000084360602878C00759
:100C500028D06868012810D02168022810D08907A0
:100C600000292EDA616821F0030101436160FFF77A
:100C70001DFF804641F288390DE021688903EFE7C6
:100C80008901EDE7FFF712FFA0EB0801494502D902
:100C90000320BDE8F0876068696800F00C00B0EBE5
:100CA000810FEFD1306800F00700B8420BD93068EF
:100CB00020F0070038433060306800F00700B84289
:100CC00001D00120E5E72878400705D56068E9688C
:100CD00020F4E060084360602878000706D560686B
:100CE000296920F4605040EAC100606000F018F803
:100CF0006168084AC1F30311515CC84006490860A5
:100D000006480068FFF7F2FE0020C2E7002002401C
:100D1000001002408E2B0008200000201800002048
:100D20000E4A51680E4801F00C03042B11D0082B19
:100D30000FD10C48C1F38343C903C05C0AD5516885
:100D4000084AC1F34041921E515C054A5043B0FB32
:100D5000F1F070470449484370470000001002401A
:100D600000127A007E2B000800093D002DE9F84FA3
:100D7000040070D02078C04DC00749D06868C0F327
:100D80008100012807D06868C0F38100022809D1DA
:100D90006868C00306D52868800339D560680028D4
:100DA000E7D035E06068B0F5803F0BD010B1B0F50A
:100DB000A02F11D0286820F480302860286820F403
:100DC000802002E0286840F480302860606890B19C
:100DD000FFF76CFE06460AE0286840F48020286091
:100DE000F0E700BFFFF762FE801B642873D8286815
:100DF0008003F7D50CE0FFF759FE064605E000BF7B
:100E0000FFF754FE801B6428F0D828688003F7D4CD
:100E100020789A4E80074FF001094FF0000839D52D
:100E2000686810F00C0F07D06868C0F381000228D2
:100E300009D16868C00306D42868800714D52069E2
:100E4000012808D110E02069B0B1C6F80090FFF782
:100E50002DFE074605E00AE1FFF728FEC01B022829
:100E6000C4D828688007F7D52868616920F0F800A1
:100E700040EAC10028600DE0C6F80080FFF716FECA
:100E8000074604E0FFF712FEC01B022823D828689B
:100E90008007F7D4207800072CD57948A169D9B10B
:100EA000C0F80090FFF702FE074604E0FFF7FEFDE2
:100EB000C01B02280FD8686A8007F7D571484FF425
:100EC000FA510068B0FBF1F0009000BF0098411E9D
:100ED0000091FAD20EE080E0C0F80080FFF7E6FD56
:100EE000074604E0FFF7E2FDC01B022875D8686AD8
:100EF0008007F7D42078400760D5E8690027C00054
:100F000008D4E86940F08050E861E869012700F002
:100F1000805000905C480168C90513D4016883467D
:100F200041F480710160FFF7C1FD824606E000BF19
:100F3000FFF7BCFDA0EB0A0064284ED8DBF80000E8
:100F4000C005F5D5E06801280AD008B1052813D0FE
:100F5000286A20F001002862286A20F0040002E0DC
:100F6000286A40F001002862E06841F2883B98B1AD
:100F7000FFF79CFD82460BE0286A40F004002862DF
:100F8000EEE700BFFFF792FDA0EB0A0159455AD8E2
:100F9000286A8007F6D50CE0FFF788FD824605E059
:100FA000FFF784FDA0EB0A0159454CD8286A800759
:100FB000F6D41FB1E86920F08050E861E06988B399
:100FC0006968C1F38101022944D00228C6F8608013
:100FD00004D0FFF76BFD044638E034E0FFF766FD10
:100FE000074604E0FFF762FDC01B02282BD82868E3
:100FF0008001F7D4206AB0F5803F05D16868A16808
:1010000020F4003008436860D4E9080108436968A7
:1010100021F4741108436860C6F86090FFF746FD3C
:10102000044606E025E000BFFFF740FD001B022854
:1010300009D828688001F7D51BE000BFFFF736FD0F
:10104000001B022802D90320BDE8F88F2868800120
:10105000F4D40EE00128F7D06868226A00F48031E9
:10106000914204D1616A00F47010884201D00120DD
:10107000EAE70020E8E700000010024000004242DA
:1010800080044242200000200070004010B5401E45
:10109000B0F1807F01D3012010BD4FF0E0246061EA
:1010A0000F21601700F02FF90020A06107202061B8
:1010B000002010BDFEE700000D4810B50B4901608F
:1010C0001021416000218160C160016141610176B0
:1010D00041768176C17601774177FFF7F7FA0028EC
:1010E00003D0BDE81040FFF7F0B910BD0064004028
:1010F0000C16002010B5124A0021124800F088F9A1
:10110000114C0F4A002120602432104800F080F971
:101110000B4A6060483200210D4800F079F9084A16
:10112000A0606C3200210B4800F072F9044AE060C4
:1011300090320021084800F06BF9206110BD0000DA
:10114000C82A0008791200080000002027130008B0
:10115000371300083F1300082F1300082DE9F0474C
:1011600086B000253E48009501950295039581695A
:1011700041F040018161816901F040010491816980
:1011800041F080018161816901F0800104918169F0
:1011900041F004018161816901F0040104918169D8
:1011A00041F0080181618069DFF8B8A000F0080013
:1011B0000490012220215046FFF772FCDFF8A8803E
:1011C000002203214046FFF76BFC0122202140460C
:1011D000FFF766FCDFF89490012220214846FFF7D4
:1011E0005FFC01242026CDE9006402946946504644
:1011F0000394FFF759FB02200327CDE90250CDE904
:10120000007469464046FFF74FFB01AA009682E84A
:10121000B00069464046FFF747FBCDE90064029401
:10122000694648460394FFF73FFB11480097CDE914
:10123000010569465046FFF737FB002205210620CD
:10124000FFF7A6FC0620FFF795FC002205210720EA
:10125000FFF79EFC0720FFF78DFC06B0BDE8F08786
:101260000010024000180140001C0140000C014029
:1012700000001110FEE7FEE7012000F073F8FBE725
:1012800010B5FFF719FC01F069FA012803D0BDE899
:10129000104000F099BF10BD30B58FB028216846CE
:1012A000FFF74DF814210AA8FFF749F801210804B7
:1012B000CDE900100024029402250491CDE90750E5
:1012C0004FF4E01009906846FFF750FD08B172B680
:1012D000FEE70F20CDE90A054FF48060CDE90C4010
:1012E00002210AA80E94FFF785FC002801D072B6EF
:1012F000FEE70FB030BD70470148FFF7E9B80000C6
:101300000C160020FEE70907090E002804DB00F197
:10131000E02080F80014704700F00F0000F1E0209A
:1013200080F8141D7047012000F01CF8FBE7012035
:1013300000F018F8FBE7012000F014F8FBE70120AB
:1013400000F010F8FBE7FFF7BFFBFFF7A5FFFFF783
:1013500005FFFFF7B1FE00F01FF8FFF7CBFE00F02E
:1013600037F8FEE710B5EFF3058149B9EFF31081C7
:1013700031B908490968022905D1EFF3118111B18A
:101380006FF0050403E0002408B100F0E3FD2046FF
:1013900010BD000074000020EFF3058058B9EFF392
:1013A000108040B909490868022801D030B109E02D
:1013B000EFF3118030B16FF0050070470120086035
:1013C000002070474FF0FF3070470000740000208D
:1013D00010B5EFF3058060B9EFF3108048B90B4901
:1013E0000868022802D0012806D00BE0EFF3118034
:1013F00040B16FF0050010BD0220086000F012FE41
:10140000002010BD4FF0FF3010BD00007400002020
:10141000F0B585B04FEA01034FF00004EFF305810A
:101420000394A1BBEFF3108189BB2149096802290C
:1014300002D1EFF3118151BB48B3802618218DF8FA
:10144000104004AD42B3176807B13D4697691FB11C
:1014500039467F1E382F02D21779FF0702D00020AD
:1014600005B0F0BD576907B1BE08D2F808C0BCF19D
:10147000000F0DD0D4685C2C18D312693AB137B183
:101480008DE806103246294601F03DF903900DE043
:10149000D7685FB912694AB903AACDE90012B2B29E
:1014A000294601F003F9012800D003940398D7E7F7
:1014B000740000202DE9F041134C0F460546666983
:1014C0002068001D00F016FC681C07D137B12168A8
:1014D000BDE8F0410D48091D00F05CBC20683544B2
:1014E000B5424560216805D2A068BDE8F041091DFC
:1014F00000F038BC6068091D00F034FC206B8542A8
:1015000000D22563BDE8F08124000020241B0020C8
:101510002DE9F041054600F049FC2D4C2069401CA6
:10152000206120682B4F10B1E06930B32BE02560BB
:101530002069012827D1002606EB860007EB8000F2
:1015400000F002FC761C382EF6D3234800F0FCFB9A
:101550002148143000F0F8FB1F48283000F0F4FB5D
:101560001D483C3000F0F0FB1B48503000F0ECFB15
:10157000194860601430A06005E02068E96AC06A1C
:10158000884200D82560E06A401CE0626864E86A2E
:10159000A169884200D9A06100EB800007EB8000C0
:1015A000291D00F0F7FB00F021FCE06900280CD0B9
:1015B0002068E96AC06A884207D208494FF0805023
:1015C0000860BFF34F8FBFF36F8FBDE8F08100005D
:1015D0002400002074160020D41A002004ED00E03E
:1015E00038B500F0E3FB104CA068C8B90F4800F014
:1015F000ABFB0E48143000F0A7FB0C482060143001
:1016000060600A4B00202833009003F15002102143
:101610000A2000F0EFFDA06010B105A100F064FC0D
:10162000BDE8384000F0E2BB60000020381B00201D
:10163000546D72510000000030B4026C0B46002A59
:101640000BD0C1681144C1604468A14201D3016854
:10165000C16030BC1846FEF725BE30BC70472DE98E
:10166000F041856B174604460026026C82B1C7B173
:10167000E068FEF717FEE168206C091AE160226855
:10168000914202D26168081AE060022F16D017E07A
:101690002068A8B9606801F0D9F8064600206060AB
:1016A0000EE0A068FEF7FEFD216CA0680844A06073
:1016B0006168884204D32068A06001E005B16D1E16
:1016C0006D1CA5633046BDE8F08110B5044690F866
:1016D000590058B101280CD002280FD0502080F3B7
:1016E0001188BFF34F8FBFF36F8FFEE7206B00F0C1
:1016F00091FB2046BDE8104000F08CBB10BD0000FF
:1017000010484FF44061420706D0C01D0D4920F03B
:101710000700411AC1F540610B4A00230144C2E9A8
:1017200000030839103A21F0070111604B600B608B
:101730000B1AC0E9001393604FF000405360D06073
:10174000704700000823002088000020144E154C2C
:10175000A6F29C474FF08058DFF84C9012E000BF93
:1017600000F024FBF068C568281D00F0C3FA20696A
:10177000401E2061E068401EE06000F037FB284614
:10178000FFF7A3FFE0680028EAD138680128F9D9FB
:10179000C9F80080BFF34F8FBFF36F8FF2E70000EF
:1017A000101B00202400002004ED00E070B51D4651
:1017B000049C51B1C4F80020C4E90F010121204666
:1017C00000F04CFD84F84C5070BD2460F4E72DE926
:1017D000F0470E46DDE90984174682469100994696
:1017E000089DA522206BFEF7A2FD6FF00301206B80
:1017F00001EB8701084420F00707780707D0502045
:1018000080F31188BFF34F8FBFF36F8FFEE722186D
:10181000315C82F83410315C11B1401C1028F6D3D1
:10182000002684F84360382D00D33725E562C4E9EB
:101830001356201D00F093FA04F1180000F08FFAFF
:101840002461C5F138006462A061666584F858605F
:101850004A465146384600F03BFA2060B8F1000F86
:1018600001D0C8F80040BDE8F087000030B511494C
:1018700000E011460A688242FBD34B685C18844240
:1018800003D1406818444860084643681C189442D5
:1018900009D1084C103C2468A24209D052681A446D
:1018A00042600A6812680260814200D0086030BD60
:1018B0000460F9E78800002070B5002441600B4DFA
:1018C0000061914206D8D11A8269914206D2011D67
:1018D000686807E09A4203D2994201D3012403E0E9
:1018E000011D286800F03EFA204670BD600000200F
:1018F00010B5044600F05AFAA06B28B15FF000045E
:1019000000F074FA204610BD0124F9E730B589B023
:10191000304D55E00498002806DADDE90601059A05
:101920009047049800284BDB069C606910B1201D8D
:1019300000F0E0F902A800F0B9F8024604980A287D
:101940003ED2DFE800F00505053D263705053D26BA
:101950000598A169034601442046FFF7ADFF00B397
:10196000616A20468847E069012829D1002000905B
:101970000598A169002342181946204601F070F825
:1019800078B9502080F31188BFF34F8FBFF36F8F6A
:10199000FEE70598A06128B1811813462046FFF79D
:1019A0008BFF0DE0502080F31188BFF34F8FBFF302
:1019B0006F8FFEE794F82C0010B9204600F02AFA49
:1019C000002204A9A86800F09BFD0028A2D109B05C
:1019D00030BD0000600000202DE9FC410F460546A7
:1019E00000F064FB01A800F061F80446019818B10A
:1019F00000F0A4FFBDE8FC81224EAFB17068006822
:101A0000A8B30027291B3A46B06800F081FA00F01D
:101A100095FF0028EED11C494FF080500860BFF3BD
:101A20004F8FBFF36F8FE5E7A542EBD800F086FF3D
:101A300030682746C068C468201D00F05BF9E06983
:101A4000012810D1A0692B4641193A462046FFF7DC
:101A500033FF40B100200346014600902A4620464D
:101A600000F0FEFF20B1616A20468847C2E707E028
:101A7000502080F31188BFF34F8FBFF36F8FFEE7C5
:101A80000127BFE76000002004ED00E00648416840
:101A9000096829B14168C968C96849680163704724
:101AA0004FF0FF31FAE700002400002070B5054632
:101AB00000F062FE064E04463069844203D200F014
:101AC00009F8012000E0002028602046346170BD44
:101AD00060000020F8B5194D1FE0C068C4680668B2
:101AE000201D00F007F9616A20468847E069012857
:101AF00013D1A0693044B04206D924616060211D31
:101B0000286800F02FF908E0002003460146009005
:101B10003246204600F0A4FF38B128680168002949
:101B2000DBD16968C5E90010F8BD502080F3118849
:101B3000BFF34F8FBFF36F8FFEE700006000002000
:101B400008484068401C4FF0500080F3118804D0D2
:101B5000BFF34F8FBFF36F8FFEE7BFF34F8FBFF31E
:101B60006F8FFEE790000020074C2068016841B1AC
:101B7000C0680021D0F80000FFF72EFFFFF7C6FE77
:101B8000F3E701210020F7E7600000202DE9F04194
:101B9000044600F00BF994F9455004F1240609E0DD
:101BA000606A48B1304600F091FE08B100F000FADA
:101BB0006D1E6DB2002DF3DC4FF0FF3684F84560EA
:101BC00000F014F900F0F2F894F9445004F1100711
:101BD00009E0206948B1384600F078FE08B100F00D
:101BE000E7F96D1E6DB2002DF3DC84F84460BDE8AA
:101BF000F04100F0FBB800002DE9F0410546002758
:101C000000F054FA314E306808B9FFF779FDF068FA
:101C100005424BD1C5B3083568070ED005F0070063
:101C2000C0F108000544680707D0502080F31188F0
:101C3000BFF34F8FBFF36F8FFEE72DB37068854200
:101C400034D82248103001460C6801E020460C468A
:101C50006168A94202D221680029F7D131688C421B
:101C600024D007682168016060680837411B10298B
:101C70000FD96019420708D0502080F31188BFF3B4
:101C80004F8FBFF36F8FFEE710E041606560FFF795
:101C9000EDFD61687068401A7060B268904200D2D1
:101CA000B060F06801430020C4E9000100F046FE86
:101CB000780707D0502080F31188BFF34F8FBFF310
:101CC0006F8FFEE73846BDE8F08100007800002005
:101CD00010B5031F4FF080741C601B1F21F0010121
:101CE0001960191F024B0B60143940380A6010BD8F
:101CF000411B0008D0E9013201699A60D0E9012353
:101D00005A604A68824201D182684A6000220261B8
:101D10000868401E0860086870470000034B0360B5
:101D200003F15C000860802010607047501C0020A8
:101D3000044B036003F15C0008604FF48070106096
:101D400070470000AC1E002000F108014FF0FF3288
:101D5000C0E90112C16001610021016070470021EA
:101D60000161704730B50B685A1C02D000F10802BF
:101D700002E0026904E02246546825689D42FAD9CF
:101D800053684B6099608A60516008610168491C22
:101D9000016030BD42684A6093688B609368596007
:101DA000916008610168491C01607047502080F310
:101DB0001188BFF34F8FBFF36F8F0A494868401CEB
:101DC000486001280CD10848006810F0FF0F07D0C8
:101DD000502080F31188BFF34F8FBFF36F8FFEE762
:101DE000704700009000002004ED00E008494868BA
:101DF00028B1401E486001D180F3118870475020FF
:101E000080F31188BFF34F8FBFF36F8FFEE70000A1
:101E10009000002070B5002827D0144DA0F10804D0
:101E20006168E868014207D1502080F31188BFF350
:101E30004F8FBFF36F8FFEE722683AB1502080F3D7
:101E40001188BFF34F8FBFF36F8FFEE7814361604F
:101E500000F02CF960686968084468602046FFF764
:101E600005FDBDE8704000F069BD70BD7800002040
:101E70004FF0E02000210161816105494FF47A7241
:101E80000968B1FBF2F1491E416107210161704708
:101E90002000002010B5FEF7E1F9114910280ED3FB
:101EA00000F1E02090F8F0030A78904207D2502029
:101EB00080F31188BFF34F8FBFF36F8FFEE70948A0
:101EC0000068896800F4E060884207D9502080F3F8
:101ED0001188BFF34F8FBFF36F8FFEE710BD000077
:101EE000900000200CED00E010B5084B002200BF70
:101EF00053F832401CB1521C082AF9D310BD43F8E4
:101F0000321003EBC201486010BD000034160020FF
:101F100070B515460E460446FFF748FF94F9441085
:101F20000020491C01D184F8440094F94510491C53
:101F300001D184F84500FFF759FFA06B28B92A4664
:101F4000314604F1240000F051F82046BDE870400D
:101F5000FFF71CBE10B5020014D00F48806B38B1DB
:101F6000502080F31188BFF34F8FBFF36F8FFEE7D0
:101F700000F09CF800211046FFF79CFA00F0DEFC10
:101F8000002807D105494FF080500860BFF34F8FFC
:101F9000BFF36F8F10BD00002400002004ED00E0AF
:101FA00002498A6A02604969416070472400002042
:101FB00001490120486270472400002010B50C46FA
:101FC00050B1094909681831FFF7CCFE2046BDE839
:101FD00010400121FFF76EBA502080F31188BFF343
:101FE0004F8FBFF36F8FFEE72400002070B51446BB
:101FF0000D4668B10A4909681831FFF7CBFE0CB1EC
:102000004FF0FF3521462846BDE87040FFF752BA31
:10201000502080F31188BFF34F8FBFF36F8FFEE71F
:102020002400002030B587B00024039405AA04A939
:1020300003A80494FFF772FEDDE903010094CDE9E3
:102040000110002315A11748059A00F05CFB164DFE
:10205000002868631FD000F0D3FC012809D0401C81
:1020600019D1502080F31188BFF34F8FBFF36F8FCA
:10207000FEE7502080F31188BFF34F8FBFF36F8FBF
:102080004FF0FF3028630120E8616C6107B0BDE8C4
:10209000304000F045B807B030BD000049444C4521
:1020A000000000004D170008240000200248816B4A
:1020B000491C81637047000024000020164810B5B9
:1020C000816B11B10121416210BD00214162816922
:1020D000124A01E0B9B1491E01EB810352F82330E5
:1020E000002BF7D001EB810302EB830202F108041D
:1020F00053685B685360A34201D15B685360DA6840
:102100000260816110BD502080F31188BFF34F8FB2
:10211000BFF36F8FFEE7000024000020741600203C
:102120001CB5264908780190FF20087008788DF8C2
:1021300000009DF800009DF8002000F0F0009042A3
:1021400007D0502080F31188BFF34F8FBFF36F8FFC
:10215000FEE79DF800001A4B00F0500018700720B1
:10216000986005E09DF8002052008DF80020401E88
:102170009DF800201206F5D49860032807D050205F
:1021800080F31188BFF34F8FBFF36F8FFEE74FF4DB
:1021900040709860019808700A48016841F4700125
:1021A0000160016841F070410160FFF761FE0020AD
:1021B0005860FEF71DF800201CBD000000E400E0A0
:1021C0009000002020ED00E010B5502080F3118831
:1021D000BFF34F8FBFF36F8F00F0D4FA18B10449EB
:1021E0004FF080500860002080F3118810BD00007F
:1021F00004ED00E038B5049D18B153B1CAB181B106
:1022000020E0502080F31188BFF34F8FBFF36F8F12
:10221000FEE7502080F31188BFF34F8FBFF36F8F1D
:10222000FEE7502080F31188BFF34F8FBFF36F8F0D
:10223000FEE739B1502080F31188BFF34F8FBFF311
:102240006F8FFEE750241C46012384F846302B464E
:102250000094FFF7ABFA204638BD000070B50D467C
:10226000040025D0FFF7A2FDD4E90F20216802FB6E
:10227000001161600021A1632168A1600A46D4E9D0
:102280000F01401E00FB0121E16021464FF0FF30AD
:1022900001F8440F487004F110008DB1FFF754FDB0
:1022A00004F12400FFF750FDFFF7A0FD012070BDF1
:1022B000502080F31188BFF34F8FBFF36F8FFEE77D
:1022C00021690029F0D000F001FB0028ECD004497E
:1022D0004FF080500860BFF34F8FBFF36F8FE3E77D
:1022E00004ED00E02DE9FF4782B01D468A464FF01D
:1022F0000008040003D0BAF1000F08D011E050200C
:1023000080F31188BFF34F8FBFF36F8FFEE7206C10
:1023100038B1502080F31188BFF34F8FBFF36F8F18
:10232000FEE7022D0AD1E06B012807D0502080F390
:102330001188BFF34F8FBFF36F8FFEE700F00EFAE7
:102340003F4F4FF000094FF0805648B9049838B11C
:10235000502080F31188BFF34F8FBFF36F8FFEE7DC
:10236000FFF724FDA06BE16B884207D3022D05D057
:102370000498D0B1B8F1000F1AD01EE02A46514699
:102380002046FFF76CF9616A19B104F1240000F0EE
:102390009DFA20B13E60BFF34F8FBFF36F8FFFF701
:1023A00025FD012006B0BDE8F087FFF71FFD22E004
:1023B0006846FFF7F5FD4FF00108FFF717FDFFF73F
:1023C00075FEFFF7F3FC94F94400401C01D184F83A
:1023D000449094F94500401C01D184F84590FFF7E2
:1023E00005FD04A9684600F027F930B12046FFF743
:1023F000CDFB00F0A3FA0020D4E7FFF7D7FCA06BD9
:10240000E16B884213D1FFF7F1FC04F1100004994D
:10241000FFF7D4FD2046FFF7B9FB00F08FFA002844
:102420009ED13E60BFF34F8FBFF36F8F98E7FFF7EA
:10243000DDFC2046FFF7AAFB00F080FA90E70000E1
:1024400004ED00E02DE9F0471F4690468946040060
:1024500003D0B9F1000F08D011E0502080F31188AB
:10246000BFF34F8FBFF36F8FFEE7206C38B1502062
:1024700080F31188BFF34F8FBFF36F8FFEE7022FFA
:102480000AD1E06B012807D0502080F31188BFF3F8
:102490004F8FBFF36F8FFEE7FFF7FCFC5020EFF389
:1024A000118680F31188BFF34F8FBFF36F8FA06B3E
:1024B000E16B884206D3022F04D0002086F31188F6
:1024C000BDE8F08794F945503A4649462046FFF763
:1024D000C6F8681C04D06D1C84F845500120EDE757
:1024E000606A0028FAD004F1240000F0EFF9002817
:1024F000F4D0B8F1000FF1D00121C8F80010EDE7D9
:102500002DE9F747002683B08A46040003D0BAF1CC
:10251000000F08D011E0502080F31188BFF34F8FD7
:10252000BFF36F8FFEE7206C38B1502080F3118825
:10253000BFF34F8FBFF36F8FFEE700F00FF9DFF8A7
:10254000F4804FF000094FF0805748B9059838B132
:10255000502080F31188BFF34F8FBFF36F8FFEE7DA
:10256000FFF724FCA56BC5B151462046FFF764F880
:102570006D1EA563206950B104F1100000F0A6F9AA
:1025800028B1C8F80070BFF34F8FBFF36F8FFFF70C
:102590002DFC012006B0BDE8F087059808B11EB1FA
:1025A00006E0FFF723FC27E06846FFF7F9FC012669
:1025B000FFF71CFCFFF77AFDFFF7F8FB94F94400E6
:1025C000401C01D184F8449094F94500401C01D18D
:1025D00084F84590FFF70AFC05A9684600F02CF83E
:1025E000002820460AD0FFF7D1FA00F0A7F92046CC
:1025F000FFF77EF90028B3D00020CBE7FFF778F98A
:1026000090B104F124000599FFF7D8FC2046FFF7AC
:10261000BDFA00F093F90028A2D1C8F80070BFF30A
:102620004F8FBFF36F8F9BE72046FFF7AFFA00F0A5
:1026300085F995E704ED00E02DE9F0410C46050031
:1026400011D0C4B1FFF7B2FB174B5A696E6820680E
:10265000911B471C17D02F689B6A9F4219D0964246
:1026600017D8012410E0502080F31188BFF34F8F5A
:10267000BFF36F8FFEE7502080F31188BFF34F8FB9
:10268000BFF36F8FFEE70024FFF7B0FB2046BDE8E5
:10269000F081884205D9401A20602846FFF780FC67
:1026A000F1E700202060DCE7240000202DE9FF5F37
:1026B0008346DDE90E87994616468A469000FFF765
:1026C0009BFA05001CD05C20FFF796FA040014D09A
:1026D0000020256384F85900CDE90240CDE9008748
:1026E0004B46324651465846FFF771F82046FEF7F2
:1026F0000FFF012004B0BDE8F09F2846FFF78AFBDA
:102700004FF0FF30F6E7F0B585B0DDE90B640A9DC8
:10271000A6B1DCB15C2700972663022684F85960D5
:10272000002604AFCDE90246CDE90057FFF74FF888
:102730002046FEF7EDFE049805B0F0BD502080F372
:102740001188BFF34F8FBFF36F8FFEE7502080F3E8
:102750001188BFF34F8FBFF36F8FFEE70548C16944
:1027600019B1806B18B1002070470120704702201A
:1027700070470000240000200148406970470000B5
:10278000240000202DE9F0412E4C0027A06B40B121
:10279000206A401C2062606A00B101273846BDE80B
:1027A000F0816669761C666113D16068006838B193
:1027B000502080F31188BFF34F8FBFF36F8FFEE778
:1027C0006068A1686160A060A06A401CA062FFF719
:1027D0005DF9206BDFF87080864209D3606800687D
:1027E00080B16068C068C568686886420DD22063A1
:1027F0002068C06A00EB800158F821000128CAD97E
:102800000127C8E74FF0FF30F1E7281DFFF772FA04
:10281000A86A18B105F11800FFF76CFAE86AA16917
:10282000884200D9A06100EB800108EB8100291DDE
:10283000FFF7B0FAE86A2168C96A8842CED3012757
:10284000CCE70000240000207416002070B50400BE
:102850004FF0000133D01B4D2868844207D0502030
:1028600080F31188BFF34F8FBFF36F8FFEE7206DAA
:1028700038B1401E2065E36CE26A9A421FD040B135
:102880001DE0502080F31188BFF34F8FBFF36F8F8F
:10289000FEE7201DFFF72EFAE06CE062C0F1380081
:1028A000A061E06AA969884200D9A861064900EBE5
:1028B000800001EB8000211DFFF76CFA0121084622
:1028C00070BD0000240000207416002070B5C068A0
:1028D000C46854B104F118000646FFF70BFA144D12
:1028E000A86B50B13146134815E0502080F3118891
:1028F000BFF34F8FBFF36F8FFEE7201DFFF7FAF98D
:10290000E06AA969884200D9A8610B4900EB800000
:1029100001EB8000211DFFF73DFAE06A2968C96AD2
:10292000884202D90120686270BD002070BD00009D
:1029300024000020FC1A0020741600202DE9F04726
:102940002C4D00242746A86B38B1FFF72FFAA86B4F
:10295000401EA863A86B40B146E0502080F3118868
:10296000BFF34F8FBFF36F8FFEE72969224E01201F
:10297000D1B3A6F5916980463068E0B1F068C468CB
:1029800004F11800FFF7B6F9201DFFF7B3F9E06A6C
:10299000A969884200D9A86100EB800109EB810098
:1029A000211DFFF7F7F9E06A2968C96A8842E3D375
:1029B000C5F82480E0E70CB1FFF768F82C6A4CB149
:1029C0004FEA0806FFF7DEFE00B16E62641EF9D121
:1029D00000202862686A38B1084901273807086072
:1029E000BFF34F8FBFF36F8FFFF700FA3846BDE894
:1029F000F087000024000020FC1A002004ED00E015
:102A000010B586B0FEF7ECFD114CA068B8B10020FF
:102A10000390049005AA04A903A8FFF789F9DDE94A
:102A2000032102208DE8070000230AA10B48059A24
:102A3000FFF769FEE06010B106B0012010BD502024
:102A400080F31188BFF34F8FBFF36F8FFEE7000055
:102A500060000020546D722053766300691B0008EB
:102A60002DE9FF411E46134602000A9D4FF000006B
:102A700016D0144CA768002F0FD0CDE90013029296
:102A8000062917DAFFF76AFE02284FF000030FD07D
:102A900000226946A068FFF725FC04B0BDE8F0817C
:102AA000502080F31188BFF34F8FBFF36F8FFEE785
:102AB0002A46EEE70023324669463846FFF7C2FC55
:102AC000EBE7000060000020A02B000800000000E1
:102AD00000000000000000000000000000020000F4
:102AE000180000000000000000000000C82B0008D3
:102AF000000000009C0400205C0000009C000020FE
:102B000000040000180000000000000000000000A9
:102B1000D42B000800000000F80800205C00000032
:102B2000F80400200004000018000000000000006D
:102B300000000000AC2B0008000000005411002031
:102B40005C0000005409002000080000180000008C
:102B50000000000000000000B82B0008000000008A
:102B6000B01500205C000000B0110020000400003F
:102B70001800000000000000000000000102020335
:102B80000405060708090A0B0C0D0E0F10100000B3
:102B9000000000000000010203040607080900000D
:102BA00064656661756C745461736B006C6F7261FF
:102BB0005F7461736B000000676561725F636F6EC5
:102BC0006C5F7461736B000066616E5F7461736B40
:102BD00000000000676561725F7461736B00000044
:102BE000002C0008000000209C0000006C01000880
:102BF0009C2C00089C000020CC34000088010008B8
:102C000000000000000000000000000000000000C4
:102C100000000000010000001000000000000000A3
:102C20000024F4000000000000000000000000008C
:102C30000000000000000000000000000000000094
:102C40000000000000000000000000000000000084
:102C50000000000000000000000000000000000074
:102C60000000000000000000000000000000000064
:102C70000000000000000000000000000000000054
:102C80000000000000000000000000000000000044
:0C2C900000000000AAAAAAAA0000000090
:0400000508000131BD
:00000001FF
